{
  "contractName": "Pool",
  "abi": [
    {
      "constant": true,
      "inputs": [],
      "name": "name",
      "outputs": [
        {
          "name": "",
          "type": "string"
        }
      ],
      "payable": false,
      "stateMutability": "view",
      "type": "function"
    },
    {
      "constant": true,
      "inputs": [],
      "name": "deadline",
      "outputs": [
        {
          "name": "",
          "type": "uint256"
        }
      ],
      "payable": false,
      "stateMutability": "view",
      "type": "function"
    },
    {
      "constant": true,
      "inputs": [],
      "name": "rate",
      "outputs": [
        {
          "name": "",
          "type": "uint256"
        }
      ],
      "payable": false,
      "stateMutability": "view",
      "type": "function"
    },
    {
      "constant": true,
      "inputs": [],
      "name": "token",
      "outputs": [
        {
          "name": "",
          "type": "address"
        }
      ],
      "payable": false,
      "stateMutability": "view",
      "type": "function"
    },
    {
      "inputs": [
        {
          "name": "_name",
          "type": "string"
        },
        {
          "name": "_rate",
          "type": "uint256"
        },
        {
          "name": "_deadline",
          "type": "uint256"
        }
      ],
      "payable": false,
      "stateMutability": "nonpayable",
      "type": "constructor"
    },
    {
      "payable": true,
      "stateMutability": "payable",
      "type": "fallback"
    },
    {
      "anonymous": false,
      "inputs": [
        {
          "indexed": true,
          "name": "_caller",
          "type": "address"
        },
        {
          "indexed": true,
          "name": "_pool",
          "type": "address"
        }
      ],
      "name": "Withdraw",
      "type": "event"
    },
    {
      "constant": false,
      "inputs": [],
      "name": "withdraw",
      "outputs": [
        {
          "name": "success",
          "type": "bool"
        }
      ],
      "payable": false,
      "stateMutability": "nonpayable",
      "type": "function"
    },
    {
      "constant": true,
      "inputs": [],
      "name": "getWeiCollected",
      "outputs": [
        {
          "name": "weiCollected",
          "type": "uint256"
        }
      ],
      "payable": false,
      "stateMutability": "view",
      "type": "function"
    }
  ],
  "bytecode": "0x608060405234801561001057600080fd5b50604051611af2380380611af283398101806040528101908080518201929190602001805190602001909291908051906020019092919050505060008211151561005957600080fd5b428111151561006757600080fd5b826001908051906020019061007d929190610104565b50816003819055508060008190555080610095610184565b80828152602001915050604051809103906000f0801580156100bb573d6000803e3d6000fd5b50600260006101000a81548173ffffffffffffffffffffffffffffffffffffffff021916908373ffffffffffffffffffffffffffffffffffffffff1602179055505050506101b9565b828054600181600116156101000203166002900490600052602060002090601f016020900481019282601f1061014557805160ff1916838001178555610173565b82800160010185558215610173579182015b82811115610172578251825591602001919060010190610157565b5b5090506101809190610194565b5090565b6040516112a88061084a83390190565b6101b691905b808211156101b257600081600090555060010161019a565b5090565b90565b610682806101c86000396000f300608060405260043610610078576000357c0100000000000000000000000000000000000000000000000000000000900463ffffffff16806306fdde03146101be5780630881acd31461024e57806329dcb0cf146102795780632c4e722e146102a45780633ccfd60b146102cf578063fc0c546a146102fe575b60008054421115151561008a57600080fd5b60003411151561009957600080fd5b6100ae3460035461035590919063ffffffff16565b9050600260009054906101000a900473ffffffffffffffffffffffffffffffffffffffff1673ffffffffffffffffffffffffffffffffffffffff1663475a9fa933836040518363ffffffff167c0100000000000000000000000000000000000000000000000000000000028152600401808373ffffffffffffffffffffffffffffffffffffffff1673ffffffffffffffffffffffffffffffffffffffff16815260200182815260200192505050602060405180830381600087803b15801561017557600080fd5b505af1158015610189573d6000803e3d6000fd5b505050506040513d602081101561019f57600080fd5b810190808051906020019092919050505015156101bb57600080fd5b50005b3480156101ca57600080fd5b506101d3610390565b6040518080602001828103825283818151815260200191508051906020019080838360005b838110156102135780820151818401526020810190506101f8565b50505050905090810190601f1680156102405780820380516001836020036101000a031916815260200191505b509250505060405180910390f35b34801561025a57600080fd5b5061026361042e565b6040518082815260200191505060405180910390f35b34801561028557600080fd5b5061028e61044d565b6040518082815260200191505060405180910390f35b3480156102b057600080fd5b506102b9610453565b6040518082815260200191505060405180910390f35b3480156102db57600080fd5b506102e4610459565b604051808215151515815260200191505060405180910390f35b34801561030a57600080fd5b50610313610630565b604051808273ffffffffffffffffffffffffffffffffffffffff1673ffffffffffffffffffffffffffffffffffffffff16815260200191505060405180910390f35b600080600084141561036a5760009150610389565b828402905082848281151561037b57fe5b0414151561038557fe5b8091505b5092915050565b60018054600181600116156101000203166002900480601f0160208091040260200160405190810160405280929190818152602001828054600181600116156101000203166002900480156104265780601f106103fb57610100808354040283529160200191610426565b820191906000526020600020905b81548152906001019060200180831161040957829003601f168201915b505050505081565b60003073ffffffffffffffffffffffffffffffffffffffff1631905090565b60005481565b60035481565b600080544211151561046a57600080fd5b600260009054906101000a900473ffffffffffffffffffffffffffffffffffffffff1673ffffffffffffffffffffffffffffffffffffffff1663d1fd562a336040518263ffffffff167c0100000000000000000000000000000000000000000000000000000000028152600401808273ffffffffffffffffffffffffffffffffffffffff1673ffffffffffffffffffffffffffffffffffffffff168152602001915050602060405180830381600087803b15801561052757600080fd5b505af115801561053b573d6000803e3d6000fd5b505050506040513d602081101561055157600080fd5b810190808051906020019092919050505015610628573373ffffffffffffffffffffffffffffffffffffffff166108fc3073ffffffffffffffffffffffffffffffffffffffff16319081150290604051600060405180830381858888f193505050501580156105c4573d6000803e3d6000fd5b503073ffffffffffffffffffffffffffffffffffffffff163373ffffffffffffffffffffffffffffffffffffffff167f34d58c18c6c1df2c698ccac556acea92941ca7b99d2fccf9e3ac1852d0dec36f60405160405180910390a36001905061062d565b600090505b90565b600260009054906101000a900473ffffffffffffffffffffffffffffffffffffffff16815600a165627a7a723058207b5a99b4b5a17723c06200590e585dc5ee24be842ba708a6acb8d6802ab850cb0029608060405234801561001057600080fd5b506040516020806112a883398101806040528101908080519060200190929190505050336000806101000a81548173ffffffffffffffffffffffffffffffffffffffff021916908373ffffffffffffffffffffffffffffffffffffffff160217905550428111151561008157600080fd5b80600181905550600060038190555033600260016101000a81548173ffffffffffffffffffffffffffffffffffffffff021916908373ffffffffffffffffffffffffffffffffffffffff160217905550336000806101000a81548173ffffffffffffffffffffffffffffffffffffffff021916908373ffffffffffffffffffffffffffffffffffffffff16021790555050611187806101216000396000f3006080604052600436106100d0576000357c0100000000000000000000000000000000000000000000000000000000900463ffffffff168063049016c0146100d557806318160ddd1461012c57806327e235e31461015757806329dcb0cf146101ae578063313ce567146101d95780633dda168e1461020a578063475a9fa914610268578063537a0c62146102cd57806370a08231146103285780638da5cb5b1461037f578063a9059cbb146103d6578063aead6c131461043b578063d1fd562a146104a8578063f2fde38b14610503575b600080fd5b3480156100e157600080fd5b506100ea610546565b604051808273ffffffffffffffffffffffffffffffffffffffff1673ffffffffffffffffffffffffffffffffffffffff16815260200191505060405180910390f35b34801561013857600080fd5b5061014161056c565b6040518082815260200191505060405180910390f35b34801561016357600080fd5b50610198600480360381019080803573ffffffffffffffffffffffffffffffffffffffff169060200190929190505050610572565b6040518082815260200191505060405180910390f35b3480156101ba57600080fd5b506101c361058a565b6040518082815260200191505060405180910390f35b3480156101e557600080fd5b506101ee610590565b604051808260ff1660ff16815260200191505060405180910390f35b34801561021657600080fd5b5061021f6105a3565b604051808373ffffffffffffffffffffffffffffffffffffffff1673ffffffffffffffffffffffffffffffffffffffff1681526020018281526020019250505060405180910390f35b34801561027457600080fd5b506102b3600480360381019080803573ffffffffffffffffffffffffffffffffffffffff16906020019092919080359060200190929190505050610633565b604051808215151515815260200191505060405180910390f35b3480156102d957600080fd5b5061030e600480360381019080803573ffffffffffffffffffffffffffffffffffffffff16906020019092919050505061084e565b604051808215151515815260200191505060405180910390f35b34801561033457600080fd5b50610369600480360381019080803573ffffffffffffffffffffffffffffffffffffffff16906020019092919050505061086e565b6040518082815260200191505060405180910390f35b34801561038b57600080fd5b506103946108b7565b604051808273ffffffffffffffffffffffffffffffffffffffff1673ffffffffffffffffffffffffffffffffffffffff16815260200191505060405180910390f35b3480156103e257600080fd5b50610421600480360381019080803573ffffffffffffffffffffffffffffffffffffffff169060200190929190803590602001909291905050506108dc565b604051808215151515815260200191505060405180910390f35b34801561044757600080fd5b5061046660048036038101908080359060200190929190505050610b76565b604051808273ffffffffffffffffffffffffffffffffffffffff1673ffffffffffffffffffffffffffffffffffffffff16815260200191505060405180910390f35b3480156104b457600080fd5b506104e9600480360381019080803573ffffffffffffffffffffffffffffffffffffffff169060200190929190505050610bb4565b604051808215151515815260200191505060405180910390f35b34801561050f57600080fd5b50610544600480360381019080803573ffffffffffffffffffffffffffffffffffffffff169060200190929190505050610c1f565b005b600260019054906101000a900473ffffffffffffffffffffffffffffffffffffffff1681565b60035481565b60046020528060005260406000206000915090505481565b60015481565b600260009054906101000a900460ff1681565b600080600260019054906101000a900473ffffffffffffffffffffffffffffffffffffffff1660046000600260019054906101000a900473ffffffffffffffffffffffffffffffffffffffff1673ffffffffffffffffffffffffffffffffffffffff1673ffffffffffffffffffffffffffffffffffffffff16815260200190815260200160002054915091509091565b60008060009054906101000a900473ffffffffffffffffffffffffffffffffffffffff1673ffffffffffffffffffffffffffffffffffffffff163373ffffffffffffffffffffffffffffffffffffffff1614151561069057600080fd5b60015442111515156106a157600080fd5b600460008473ffffffffffffffffffffffffffffffffffffffff1673ffffffffffffffffffffffffffffffffffffffff1681526020019081526020016000205482600460008673ffffffffffffffffffffffffffffffffffffffff1673ffffffffffffffffffffffffffffffffffffffff16815260200190815260200160002054011115156107335760009050610848565b61073c83610d74565b5061078f600460008573ffffffffffffffffffffffffffffffffffffffff1673ffffffffffffffffffffffffffffffffffffffff1681526020019081526020016000205483610e9990919063ffffffff16565b600460008573ffffffffffffffffffffffffffffffffffffffff1673ffffffffffffffffffffffffffffffffffffffff168152602001908152602001600020819055506107e760035483610e9990919063ffffffff16565b6003819055508273ffffffffffffffffffffffffffffffffffffffff167f600c523bbab56f21f37d382a0935adbae55e98c4bda5c1f3f11d60d60ddf3633836040518082815260200191505060405180910390a2610843610eb7565b600190505b92915050565b60056020528060005260406000206000915054906101000a900460ff1681565b6000600460008373ffffffffffffffffffffffffffffffffffffffff1673ffffffffffffffffffffffffffffffffffffffff168152602001908152602001600020549050919050565b6000809054906101000a900473ffffffffffffffffffffffffffffffffffffffff1681565b600060015442111515156108ef57600080fd5b81600460003373ffffffffffffffffffffffffffffffffffffffff1673ffffffffffffffffffffffffffffffffffffffff1681526020019081526020016000205410806109bc5750600460008473ffffffffffffffffffffffffffffffffffffffff1673ffffffffffffffffffffffffffffffffffffffff1681526020019081526020016000205482600460008673ffffffffffffffffffffffffffffffffffffffff1673ffffffffffffffffffffffffffffffffffffffff168152602001908152602001600020540111155b156109ca5760009050610b70565b6109d383610d74565b50610a2682600460003373ffffffffffffffffffffffffffffffffffffffff1673ffffffffffffffffffffffffffffffffffffffff1681526020019081526020016000205461114290919063ffffffff16565b600460003373ffffffffffffffffffffffffffffffffffffffff1673ffffffffffffffffffffffffffffffffffffffff16815260200190815260200160002081905550610abb82600460008673ffffffffffffffffffffffffffffffffffffffff1673ffffffffffffffffffffffffffffffffffffffff16815260200190815260200160002054610e9990919063ffffffff16565b600460008573ffffffffffffffffffffffffffffffffffffffff1673ffffffffffffffffffffffffffffffffffffffff168152602001908152602001600020819055508273ffffffffffffffffffffffffffffffffffffffff163373ffffffffffffffffffffffffffffffffffffffff167f0a85107a334eae0d22d21cdf13af0f8e8125039ec60baaa843d2c4c5b0680174846040518082815260200191505060405180910390a3610b6b610eb7565b600190505b92915050565b600681815481101515610b8557fe5b906000526020600020016000915054906101000a900473ffffffffffffffffffffffffffffffffffffffff1681565b60008173ffffffffffffffffffffffffffffffffffffffff16600260019054906101000a900473ffffffffffffffffffffffffffffffffffffffff1673ffffffffffffffffffffffffffffffffffffffff161415610c155760019050610c1a565b600090505b919050565b6000809054906101000a900473ffffffffffffffffffffffffffffffffffffffff1673ffffffffffffffffffffffffffffffffffffffff163373ffffffffffffffffffffffffffffffffffffffff16141515610c7a57600080fd5b600073ffffffffffffffffffffffffffffffffffffffff168173ffffffffffffffffffffffffffffffffffffffff1614151515610cb657600080fd5b8073ffffffffffffffffffffffffffffffffffffffff166000809054906101000a900473ffffffffffffffffffffffffffffffffffffffff1673ffffffffffffffffffffffffffffffffffffffff167f8be0079c531659141344cd1fd0a4f28419497f9722a3daafe3b4186f6b6457e060405160405180910390a3806000806101000a81548173ffffffffffffffffffffffffffffffffffffffff021916908373ffffffffffffffffffffffffffffffffffffffff16021790555050565b6000600560008373ffffffffffffffffffffffffffffffffffffffff1673ffffffffffffffffffffffffffffffffffffffff16815260200190815260200160002060009054906101000a900460ff1615610dd15760009050610e94565b6001600560008473ffffffffffffffffffffffffffffffffffffffff1673ffffffffffffffffffffffffffffffffffffffff16815260200190815260200160002060006101000a81548160ff02191690831515021790555060068290806001815401808255809150509060018203906000526020600020016000909192909190916101000a81548173ffffffffffffffffffffffffffffffffffffffff021916908373ffffffffffffffffffffffffffffffffffffffff16021790555050600190505b919050565b6000808284019050838110151515610ead57fe5b8091505092915050565b600080600060066000815481101515610ecc57fe5b9060005260206000200160009054906101000a900473ffffffffffffffffffffffffffffffffffffffff1692506006805490509150600190505b818110156110175760046000600683815481101515610f2157fe5b9060005260206000200160009054906101000a900473ffffffffffffffffffffffffffffffffffffffff1673ffffffffffffffffffffffffffffffffffffffff1673ffffffffffffffffffffffffffffffffffffffff16815260200190815260200160002054600460008573ffffffffffffffffffffffffffffffffffffffff1673ffffffffffffffffffffffffffffffffffffffff16815260200190815260200160002054101561100a57600681815481101515610fdc57fe5b9060005260206000200160009054906101000a900473ffffffffffffffffffffffffffffffffffffffff1692505b8080600101915050610f06565b8273ffffffffffffffffffffffffffffffffffffffff16600260019054906101000a900473ffffffffffffffffffffffffffffffffffffffff1673ffffffffffffffffffffffffffffffffffffffff1614151561113d5782600260016101000a81548173ffffffffffffffffffffffffffffffffffffffff021916908373ffffffffffffffffffffffffffffffffffffffff1602179055508273ffffffffffffffffffffffffffffffffffffffff167f09661a8ace6b3cd1f1b3281430248c132367a4ec5af504691598faa5eafdc848600460008673ffffffffffffffffffffffffffffffffffffffff1673ffffffffffffffffffffffffffffffffffffffff168152602001908152602001600020546040518082815260200191505060405180910390a25b505050565b600082821115151561115057fe5b8183039050929150505600a165627a7a7230582068786eab146f504e0f1afb52fb854138ce11b2424fd6f6aa895e48f26d77f0800029",
  "source": "pragma solidity ^0.4.21;\n\nimport \"./SafeMath.sol\";\nimport \"./Timed.sol\";\nimport \"./iPool.sol\";\nimport \"./FishToken.sol\";\nimport \"./iFishToken.sol\";\n\ncontract Pool is iPool, Timed {\n    using SafeMath for uint256;\n\n    string public name;\n    address public token;\n    uint256 public rate;\n\n    function Pool(string _name, uint256 _rate, uint256 _deadline) public {\n        require(_rate > 0);\n        require(_deadline > block.timestamp);\n        name = _name;\n        rate = _rate;\n        deadline = _deadline;\n        token = new FishToken(_deadline);\n    }\n\n    //Deposit\n    function () public payable onlyWhileOpen {\n        require(msg.value > 0);\n        uint256 rewardTokens = rate.mul(msg.value);\n        require(iFishToken(token).issueTokens(msg.sender, rewardTokens));\n    }\n\n    //Withdraw\n    function withdraw() public onlyWhileClosed returns (bool success) {\n        if(iFishToken(token).isShark(msg.sender)) {\n            msg.sender.transfer(address(this).balance);\n\n            emit Withdraw(msg.sender, address(this));\n            return true;\n        }\n        return false;\n    }\n\n    function getWeiCollected() external view returns (uint256 weiCollected) {\n        return address(this).balance;\n    }\n}\n",
  "sourcePath": "/Users/qtd/workspace/blockchain/pool-shark/contracts/Pool.sol",
  "compiler": {
    "name": "solc",
    "version": "0.4.24+commit.e67f0147.Emscripten.clang"
  },
  "schemaVersion": "2.0.1",
  "updatedAt": "2018-12-10T07:37:29.985Z"
}